:020000040800F2
:1000000060070020CD320008790200087B0200085A
:100010007F02000883020008870200080000000039
:100020000000000000000000000000008B0200083B
:100030008D020008000000008F02000891020008F5
:10004000E7320008E7320008E7320008E73200082C
:10005000E7320008E73200080F020008E732000824
:10006000E7320008E7320008E7320008E73200080C
:10007000E7320008E7320008E7320008E7320008FC
:10008000E7320008E7320008E7320008E7320008EC
:10009000E7320008E7320008E7320008E7320008DC
:1000A000E7320008E7320008E7320008E7320008CC
:1000B000E7320008E7320008E7320008E7320008BC
:1000C000E7320008E7320008E7320008E7320008AC
:1000D000E732000841320008E7320008E732000842
:1000E0003F020008E7320008E7320008E732000864
:1000F000E7320008E7320008E7320008E73200087C
:10010000E7320008E7320008E7320008E73200086B
:10011000E7320008E7320008E7320008E73200085B
:10012000E7320008E7320008E7320008E73200084B
:1001300000F002F800F03AF80AA090E8000C8244BF
:100140008344AAF10107DA4501D100F02FF8AFF29C
:10015000090EBAE80F0013F0010F18BFFB1A43F0A5
:1001600001031847183F0000383F0000103A24BF31
:1001700078C878C1FAD8520724BF30C830C144BF0C
:1001800004680C607047000000230024002500264E
:10019000103A28BF78C1FBD8520728BF30C148BFEA
:1001A0000B6070471FB51FBD10B510BD03F037FFC2
:1001B0001146FFF7F7FF00F009F803F055FF03B40D
:1001C000FFF7F2FF03BC02F0E1FF00000020254929
:1001D00008702549087002F06BFF00F05CF902F02E
:1001E000CFFF00F045F902F045FF02F0F7FE0221D3
:1001F0001E4803F096F904211C4803F092F90821E7
:100200001A4803F08EF901E001F022FAFCE710B57C
:100210000A2002F089FF012003F0E2FE58B101211B
:10022000134803F064F9012805D10E490870042130
:10023000104803F078F9012003F0E3FE10BD10B57B
:100240000A2002F071FF4FF4004003F0C9FE20B114
:100250004FF40041064803F04AF94FF4004003F020
:10026000D0FE10BD00000020010000200010014061
:100270000008014000140140704700BFFEE700BFC6
:10028000FEE700BFFEE700BFFEE77047704770471C
:10029000704700000CB50020019000906B4800688A
:1002A00040F480306949086000BF6848006800F485
:1002B000003000900198401C0190009818B90198F6
:1002C000B0F5A06FF1D16148006810F4003F02D092
:1002D0000120009001E0002000900098012842D108
:1002E0005B48006840F01000594908600846006803
:1002F00020F0030008600846006840F00200086033
:10030000524840685149486008464068486008467D
:10031000406840F4806048600846406820F47C10E3
:1003200048600846406840F4E810486008460068A5
:1003300040F08070086000BF4448006810F0007F03
:10034000FAD04248406820F003004049486008461F
:10035000406840F00200486000BF3C48406800F040
:100360000C000828F9D10CBD10B5FFF793FF10BDA4
:1003700010B53648006840F001003449086008466E
:1003800040683449084031494860084600683249AD
:1003900008402E4908600846006820F48020086064
:1003A0000846406820F4FE0048604FF41F00886053
:1003B000FFF7DAFF4FF000602849086010BD10B564
:1003C000002100200022214B5B6803F00C0121B1C9
:1003D000042906D0082928D107E0214B214C2360AD
:1003E00027E01F4B1F4C236023E0184B5B6803F48E
:1003F0007010164B5B6803F48032022303EB9040CD
:1004000022B9194B4343174C23600DE00F4B5B6837
:1004100013F4003F04D0144B4343124C236003E019
:100420000F4B43430F4C236003E00D4B0D4C2360F7
:1004300000BF00BF054B5B68C3F303130B4CE15CCB
:10044000084B1B68CB40074C236010BD00100240D6
:10045000002002400000FFF8FFFFF6FE08ED00E07C
:1004600000127A000400002000093D00080000206E
:1004700008B50121102003F05FFA0E20ADF800004E
:1004800010208DF8030003208DF8020069460D4806
:1004900002F09CFF08BD08B50121202003F04CFAB2
:1004A0000420ADF8000010208DF8030003208DF823
:1004B00002006946044802F089FF0421024803F063
:1004C00030F808BD001001400014014010B50221B1
:1004D000FB4803F026F80421F94803F022F808212C
:1004E000F74803F01EF810BD10B5FFF7EFFF02212B
:1004F000F34803F018F80421F14803F012F808213A
:10050000EF4803F010F8052002F0EBFD0221EC4863
:1005100003F007F80421EA4803F003F80821E8484B
:1005200003F001F8052002F0DCFD0221E44802F0AE
:10053000FAFF0421E24802F0F6FF0821E04802F049
:10054000F2FF052002F0CDFD0221DD4802F0E9FFB7
:100550000421DB4802F0E7FF0821D94802F0E3FF5D
:10056000052002F0BEFD0221D54802F0DCFF042187
:10057000D34802F0D6FF0821D14802F0D4FF05206D
:1005800002F0AFFD0221CE4802F0CBFF0421CC489F
:1005900002F0C7FF0821CA4802F0C5FF052002F09B
:1005A000A0FD0221C64802F0BEFF0421C44802F0AB
:1005B000BAFF0821C24802F0B6FF052002F091FD03
:1005C0000221BF4802F0ADFF0421BD4802F0ABFF9D
:1005D0000821BB4802F0A7FF052002F082FD02219E
:1005E000B74802F0A0FF0421B54802F09AFF0821A5
:1005F000B34802F098FF052002F073FD0221B048D5
:1006000002F08FFF0421AE4802F08BFF0821AC48B6
:1006100002F089FF052002F064FD0221A84802F0E3
:1006200082FF0421A64802F07EFF0821A44802F0C0
:100630007AFF052002F055FD0221A14802F071FF6A
:1006400004219F4802F06FFF08219D4802F06BFFD4
:10065000052002F046FD0221994802F064FF0421C2
:10066000974802F05EFF0821954802F05CFF0520E4
:1006700002F037FD0221924802F053FF0421904816
:1006800002F04FFF08218E4802F04DFF052002F0D6
:1006900028FD02218A4802F046FF0421884802F022
:1006A00042FF0821864802F03EFF052002F019FDB6
:1006B0000221834802F035FF0421814802F033FF14
:1006C00008217F4802F02FFF052002F00AFDFFF706
:1006D000FDFE10BD10B5FFF7F9FE0221784802F0CB
:1006E00022FF0421764802F01EFF0821744802F020
:1006F0001AFF052002F0F5FC0221714802F011FFFB
:1007000004216F4802F00FFF08216D4802F00BFF33
:10071000052002F0E6FC0221694802F004FF0421F2
:10072000674802F000FF0821654802F0FCFE052042
:1007300002F0D7FC0221624802F0F3FE0421604877
:1007400002F0F1FE08215E4802F0EDFE052002F005
:10075000C8FC02215A4802F0E6FE0421584802F083
:10076000E2FE0821564802F0DEFE052002F0B9FC48
:100770000221534802F0D5FE0421514802F0D3FE75
:1007800008214F4802F0CFFE052002F0AAFC02210A
:100790004B4802F0C8FE0421494802F0C4FE08217B
:1007A000474802F0C0FE052002F09BFC02214448AD
:1007B00002F0B7FE0421424802F0B5FE082140488D
:1007C00002F0B1FE052002F08CFC02213C4802F050
:1007D000AAFE04213A4802F0A6FE0821384802F099
:1007E000A2FE052002F07DFC0221354802F099FEB0
:1007F0000421334802F097FE0821314802F091FEAF
:10080000052002F06EFC02212D4802F08CFE04212E
:100810002B4802F088FE0821294802F084FE0520BA
:1008200002F05FFC0221264802F07BFE04212448EE
:1008300002F079FE0821224802F075FE052002F040
:1008400050FC02211E4802F06EFE04211C4802F0FA
:100850006AFE08211A4802F066FE052002F041FCFB
:100860000221174802F05DFE0421154802F05BFEEC
:100870000821134802F055FE052002F032FC022147
:100880000F4802F050FE04210D4802F04CFE0821F2
:100890000B4802F048FE052002F023FC0221084824
:1008A00002F03FFE0421064802F03DFE0821044804
:1008B00002F039FE052002F014FCFFF707FE10BD20
:1008C0000010014010B5FFF701FE0221FE4802F0C2
:1008D0002AFE0421FC4802F026FE0821FA4802F014
:1008E00022FE052002F0FDFB0221F74802F019FE6E
:1008F0000421F54802F017FE0821F34802F013FE28
:10090000052002F0EEFB0221EF4802F00CFE04216C
:10091000ED4802F008FE0821EB4802F004FE052035
:1009200002F0DFFB0221E84802F0FBFD0421E6486B
:1009300002F0F9FD0821E44802F0F3FD052002F081
:10094000D0FB0221E04802F0EEFD0421DE4802F077
:10095000EAFD0821DC4802F0E6FD052002F0C1FBBB
:100960000221D94802F0DDFD0421D74802F0DBFD69
:100970000821D54802F0D7FD052002F0B2FB022184
:10098000D14802F0D0FD0421CF4802F0CCFD08216F
:10099000CD4802F0C8FD052002F0A3FB0221CA48A1
:1009A00002F0BFFD0421C84802F0BDFD0821C64881
:1009B00002F0B9FD052002F094FB0221C24802F0CA
:1009C000B2FD0421C04802F0AEFD0821BE4802F08D
:1009D000AAFD052002F085FB0221BB4802F0A1FD23
:1009E0000421B94802F09FFD0821B74802F09BFDA1
:1009F000052002F076FB0221B34802F094FD0421A9
:100A0000B14802F090FD0821AF4802F08CFD0520AE
:100A100002F067FB0221AC4802F083FD0421AA48E2
:100A200002F081FD0821A84802F07BFD052002F0BC
:100A300058FB0221A44802F076FD0421A24802F0EE
:100A400072FD0821A04802F06EFD052002F049FB6E
:100A500002219D4802F065FD04219B4802F063FDE0
:100A60000821994802F05FFD052002F03AFB0221BF
:100A7000954802F058FD0421934802F054FD0821E6
:100A8000914802F050FD052002F02BFB02218E4818
:100A900002F047FD04218C4802F045FD08218A48F8
:100AA00002F041FD052002F01CFBFFF70FFD10BD19
:100AB00010B5FFF70BFD0221834802F034FD04213D
:100AC000814802F030FD08217F4802F02CFD05200E
:100AD00002F007FB02217C4802F023FD04217A4842
:100AE00002F021FD0821784802F01BFD052002F0EC
:100AF000F8FA0221744802F016FD0421724802F04F
:100B000010FD0821704802F00EFD052002F0E9FA00
:100B100002216D4802F005FD04216B4802F001FD41
:100B20000821694802F0FDFC052002F0DAFA0221F2
:100B3000654802F0F8FC0421634802F0F4FC082147
:100B4000614802F0F0FC052002F0CBFA02215E4879
:100B500002F0E7FC04215C4802F0E5FC08215A4859
:100B600002F0DFFC052002F0BCFA0221564802F038
:100B7000DAFC0421544802F0D6FC0821524802F065
:100B8000D2FC052002F0ADFA02214F4802F0C9FC68
:100B900004214D4802F0C7FC08214B4802F0C1FC7B
:100BA000052002F09EFA0221474802F0BCFC042115
:100BB000454802F0B8FC0821434802F0B4FC052087
:100BC00002F08FFA0221404802F0ABFC04213E48BB
:100BD00002F0A9FC08213C4802F0A3FC052002F029
:100BE00080FA0221384802F09EFC0421364802F0C7
:100BF00098FC0821344802F096FC052002F071FAB6
:100C00000221314802F08DFC04212F4802F089FCBA
:100C100008212D4802F087FC052002F062FA02212B
:100C2000294802F080FC0421274802F07CFC0821BE
:100C3000254802F078FC052002F053FA02212248F0
:100C400002F06FFC0421204802F06DFC08211E48D0
:100C500002F067FC052002F044FA02211A4802F073
:100C600062FC0421184802F05EFC0821164802F0DC
:100C70005AFC052002F035FA0221134802F051FC1B
:100C80000421114802F04FFC08210F4802F049FCF2
:100C9000052002F026FAFFF719FC10BD10B5FFF78A
:100CA00015FC822002F01DFA0221074802F03BFCED
:100CB0000421054802F037FC0821034802F033FC08
:100CC000052002F00EFA01E0001001400221FE486A
:100CD00002F027FC0421FC4802F025FC0821FA4818
:100CE00002F01FFC052002F0FCF90221F64802F098
:100CF0001AFC0421F44802F014FC0821F24802F026
:100D000012FC052002F0EDF90221EF4802F009FC87
:100D10000421ED4802F005FC0821EB4802F001FC3B
:100D2000052002F0DEF90221E74802F0FCFB042175
:100D3000E54802F0F8FB0821E34802F0F4FB052047
:100D400002F0CFF90221E04802F0EBFB0421DE487B
:100D500002F0E9FB0821DC4802F0E5FB052002F087
:100D6000C0F90221D84802F0DEFB0421D64802F087
:100D7000DAFB0821D44802F0D6FB052002F0B1F9D5
:100D80000221D14802F0CDFB0421CF4802F0CBFB79
:100D90000821CD4802F0C5FB052002F0A2F902218E
:100DA000C94802F0C0FB0421C74802F0BCFB08217F
:100DB000C54802F0B8FB052002F093F90221C248B1
:100DC00002F0AFFB0421C04802F0ADFB0821BE4891
:100DD00002F0A9FB052002F084F90221BA4802F0D2
:100DE000A2FB0421B84802F09CFB0821B64802F09F
:100DF0009AFB052002F075F90221B34802F091FB3D
:100E00000421B14802F08DFB0821AF4802F08BFBB2
:100E1000052002F066F90221AB4802F084FB0421B0
:100E2000A94802F080FB0821A74802F07CFB0520BE
:100E300002F057F90221A44802F073FB0421A248F2
:100E400002F071FB0821A04802F06DFB052002F0C2
:100E500048F902219C4802F066FB04219A4802F0FE
:100E600062FB0821984802F05EFB052002F039F988
:100E70000221954802F055FB0421934802F053FBF0
:100E80000821914802F04DFB052002F02AF9FFF7F6
:100E90001DFB10BD10B5FFF719FB02218A4802F0B7
:100EA00042FB0421884802F03EFB0821864802F0FC
:100EB0003AFB052002F015F90221834802F031FBCC
:100EC0000421814802F02FFB08217F4802F029FB12
:100ED000052002F006F902217B4802F024FB0421E0
:100EE000794802F01EFB0821774802F01CFB052020
:100EF00002F0F7F80221744802F013FB0421724853
:100F000002F00FFB0821704802F00DFB052002F0F3
:100F1000E8F802216C4802F006FB04216A4802F05E
:100F200002FB0821684802F0FEFA052002F0D9F819
:100F30000221654802F0F5FA0421634802F0F3FA51
:100F40000821614802F0EFFA052002F0CAF80221F8
:100F50005D4802F0E8FA04215B4802F0E4FA082157
:100F6000594802F0E0FA052002F0BBF80221564889
:100F700002F0D7FA0421544802F0D5FA0821524869
:100F800002F0CFFA052002F0ACF802214E4802F040
:100F9000CAFA04214C4802F0C6FA08214A4802F075
:100FA000C2FA052002F09DF80221474802F0B9FA82
:100FB0000421454802F0B7FA0821434802F0B3FA89
:100FC000052002F08EF802213F4802F0ACFA04211D
:100FD0003D4802F0A6FA08213B4802F0A4FA052099
:100FE00002F07FF80221384802F09BFA04213648CB
:100FF00002F097FA0821344802F095FA052002F031
:1010000070F80221304802F08EFA04212E4802F0D6
:101010008AFA08212C4802F086FA052002F061F8CD
:101020000221294802F07DFA0421274802F07BFAC8
:101030000821254802F077FA052002F052F8022133
:10104000214802F070FA04211F4802F06CFA0821CE
:101050001D4802F068FA052002F043F802211A4800
:1010600002F05FFA0421184802F05DFA08211648E0
:1010700002F057FA052002F034F8FFF727FA10BD06
:1010800010B5FFF723FA02210F4802F04CFA0421B1
:101090000D4802F048FA08210B4802F044FA0520F6
:1010A00002F01FF80221084802F03BFA042106482A
:1010B00002F039FA0821044802F033FA052002F060
:1010C00010F80221004801E00010014002F02BFA64
:1010D0000421FE4802F027FA0821FC4802F023FA16
:1010E000052001F0FEFF0221F84802F01AFA04215F
:1010F000F64802F018FA0821F44802F014FA052024
:1011000001F0EFFF0221F14802F00DFA0421EF484F
:1011100002F009FA0821ED4802F005FA052001F075
:10112000E0FF0221E94802F0FCF90421E74802F05F
:10113000FAF90821E54802F0F6F9052001F0D1FF9F
:101140000221E24802F0EFF90421E04802F0EBF955
:101150000821DE4802F0E7F9052001F0C2FF022174
:10116000DA4802F0DEF90421D84802F0DCF908215F
:10117000D64802F0D8F9052001F0B3FF0221D34888
:1011800002F0D1F90421D14802F0CDF90821CF486D
:1011900002F0C9F9052001F0A4FF0221CB4802F0BA
:1011A000C0F90421C94802F0BEF90821C74802F07D
:1011B000BAF9052001F095FF0221C44802F0B3F905
:1011C0000421C24802F0AFF90821C04802F0ABF98F
:1011D000052001F086FF0221BC4802F0A2F904219B
:1011E000BA4802F0A0F90821B84802F09CF905209D
:1011F00001F077FF0221B54802F095F90421B348C8
:1012000002F091F90821B14802F08DF9052001F0B2
:1012100068FF0221AD4802F084F90421AB4802F0D6
:1012200082F90821A94802F07EF9052001F059FF52
:101230000221A64802F077F90421A44802F073F9CC
:101240000821A24802F06FF9052001F04AFF0221AF
:101250009E4802F066F904219C4802F064F90821D6
:101260009A4802F05EF9052001F03BFFFFF72EF9E6
:1012700010BD10B5FFF72AF90221944802F053F986
:101280000421924802F04FF90821904802F04BF9EE
:10129000052001F026FF02218C4802F042F90421CA
:1012A0008A4802F040F90821884802F03CF90520FC
:1012B00001F017FF0221854802F035F90421834827
:1012C00002F031F90821814802F02DF9052001F0E2
:1012D00008FF02217D4802F024F904217B4802F036
:1012E00022F90821794802F01EF9052001F0F9FEE3
:1012F0000221764802F017F90421744802F011F92E
:101300000821724802F00FF9052001F0EAFE0221DF
:101310006E4802F006F904216C4802F002F9082137
:101320006A4802F000F9052001F0DBFE022167485F
:1013300002F0F9F80421654802F0F5F80821634845
:1013400002F0F1F8052001F0CCFE02215F4802F026
:10135000E8F804215D4802F0E6F808215B4802F055
:10136000E2F8052001F0BDFE0221584802F0DBF84A
:101370000421564802F0D7F80821544802F0D3F867
:10138000052001F0AEFE0221504802F0CAF8042107
:101390004E4802F0C8F808214C4802F0C4F8052075
:1013A00001F09FFE0221494802F0BDF804214748A0
:1013B00002F0B7F80821454802F0B5F8052001F021
:1013C00090FE0221414802F0ACF804213F4802F0AF
:1013D000A8F808213D4802F0A6F8052001F081FE9A
:1013E00002213A4802F09FF80421384802F09BF8A5
:1013F0000821364802F097F8052001F072FE02211C
:10140000324802F08EF80421304802F08CF80821AE
:101410002E4802F088F8052001F063FE02212B48D7
:1014200002F081F80421294802F07DF808212748BC
:1014300002F079F8052001F054FE0221234802F061
:1014400070F80421214802F06EF808211F4802F0CC
:101450006AF8052001F045FEFFF738F810BD10B519
:10146000FFF734F80221194802F05DF8042117480B
:1014700002F059F80821154802F055F8052001F04E
:1014800030FE0221114802F04CF804210F4802F00E
:101490004AF808210D4802F046F8052001F021FE27
:1014A00002210A4802F03FF80421084802F03BF804
:1014B0000821064802F037F8052001F012FE02214B
:1014C000024802F02EF80421004801E0001001401B
:1014D00002F029F80821A34802F025F8052001F0C0
:1014E00000FE02219F4802F01EF804219D4802F0F0
:1014F0001AF808219B4802F016F8052001F0F1FDCA
:101500000221984802F00DF80421964802F00BF8E9
:101510000821944802F007F8052001F0E2FD0221BD
:10152000904802F000F804218E4801F0FCFF0821E9
:101530008C4801F0F8FF052001F0D3FD0221894815
:1015400001F0EFFF0421874801F0EDFF08218548F5
:1015500001F0E9FF052001F0C4FD0221814801F0FE
:10156000E2FF04217F4801F0DEFF08217D4801F001
:10157000DAFF052001F0B5FD02217A4801F0D1FF24
:101580000421784801F0CFFF0821764801F0CBFF15
:10159000052001F0A6FD0221724801F0C4FF0421DC
:1015A000704801F0C0FF08216E4801F0BCFF052023
:1015B00001F097FD02216B4801F0B3FF0421694857
:1015C00001F0B1FF0821674801F0ADFF052001F0EF
:1015D00088FD0221634801F0A6FF0421614801F063
:1015E000A2FF08215F4801F09EFF052001F079FD70
:1015F00002215C4801F095FF04215A4801F093FF55
:101600000821584801F08FFF052001F06AFD0221F2
:10161000544801F088FF0421524801F084FF08215A
:10162000504801F080FF052001F05BFD02214D488C
:1016300001F077FF04214B4801F075FF082149486C
:1016400001F071FF052001F04CFDFEF73FFF10BDDA
:1016500010B501F03AFC40F2A22001F065FDFFF761
:1016600039F840F2762001F03CFDFEF73DFF4FF4E3
:10167000B47001F036FDFFF725F94FF4A57001F0C5
:1016800030FDFFF715FA4FF4AA7001F02AFDFFF7BD
:1016900005FB40F2145001F024FDFFF7FBFB4FF473
:1016A000A57001F01EFDFFF7EBFC4FF4A57001F0F3
:1016B00018FDFFF7DEFD4FF4A57001F012FDFFF7F6
:1016C000CEFE5D2001F030FD01F0FFFB4FF4D27043
:1016D00001F02AFD01F0F9FB4FF4D27001F024FD76
:1016E000FEF7F8FF40F2762001F0FBFCFEF7FCFE6F
:1016F0004FF4B47001F0F5FCFFF7E4F84FF4A57077
:1017000001F0EFFCFFF7D4F94FF4AA7001F0E9FC07
:10171000FFF7C4FA40F2145001F0E3FCFFF7BAFB04
:101720004FF4A57001F0DDFCFFF7AAFC4FF4A570A3
:1017300001F0D7FCFFF79DFD4FF4A57001F0D1FC3F
:10174000FFF78DFE6A2001F0EFFC01F0BEFB40F2D6
:10175000122001F0E9FC01F0B8FB40F2122001F088
:10176000E3FC10BD0010014010B50221FD4801F05E
:10177000D8FE0421FB4801F0D4FE0821F94801F00D
:10178000D0FE10BD10B5FFF7EFFF822001F0A9FCDD
:101790000221F44801F0C7FE0421F24801F0C3FE23
:1017A0000821F04801F0BFFE052001F09AFC02215B
:1017B000EC4801F0B6FE0421EA4801F0B4FE08212D
:1017C000E84801F0B0FE052001F08BFC0221E5485D
:1017D00001F0A9FE0421E34801F0A5FE0821E1483B
:1017E00001F0A1FE052001F07CFC0221DD4801F0A2
:1017F00098FE0421DB4801F096FE0821D94801F04B
:1018000092FE052001F06DFC0221D64801F08BFE0E
:101810000421D44801F087FE0821D24801F083FE5C
:10182000052001F05EFC0221CE4801F07AFE042181
:10183000CC4801F078FE0821CA4801F074FE05206A
:1018400001F04FFC0221C74801F06DFE0421C5489C
:1018500001F069FE0821C34801F065FE052001F092
:1018600040FC0221BF4801F05CFE0421BD4801F0AC
:101870005AFE0821BB4801F056FE052001F031FC5C
:101880000221B84801F04FFE0421B64801F04BFE9A
:101890000821B44801F047FE052001F022FC022196
:1018A000B04801F03EFE0421AE4801F03CFE0821A4
:1018B000AC4801F036FE052001F013FC0221A948D6
:1018C00001F031FE0421A74801F02DFE0821A548B2
:1018D00001F029FE052001F004FC0221A14801F0DD
:1018E00020FE04219F4801F01EFE08219D4801F0C2
:1018F0001AFE052001F0F5FB02219A4801F013FEC3
:101900000421984801F00FFE0821964801F00BFED3
:10191000052001F0E6FB0221924801F002FE0421BD
:10192000904801F000FE08218E4801F0FAFD0520E4
:1019300001F0D7FB02218B4801F0F5FD0421894815
:1019400001F0F1FD0821874801F0EDFD052001F0CF
:10195000C8FB0221834801F0E4FD0421814801F025
:10196000E2FD08217F4801F0DEFD052001F0B9FB12
:10197000FFF7FAFE10BD10B5FFF7F6FE0221794819
:1019800001F0D1FD0421774801F0CBFD0821754815
:1019900001F0C9FD052001F0A4FB0221714801F00E
:1019A000C0FD04216F4801F0BCFD08216D4801F025
:1019B000BAFD052001F095FB02216A4801F0B3FD54
:1019C0000421684801F0AFFD0821664801F0ABFD35
:1019D000052001F086FB0221624801F0A2FD0421EE
:1019E000604801F0A0FD08215E4801F09CFD052043
:1019F00001F077FB02215B4801F095FD0421594875
:101A000001F08FFD0821574801F08DFD052001F000
:101A100068FB0221534801F084FD0421514801F084
:101A200080FD08214F4801F07EFD052001F059FBA3
:101A300002214C4801F077FD04214A4801F073FD72
:101A40000821484801F06FFD052001F04AFB022102
:101A5000444801F066FD0421424801F064FD08217C
:101A6000404801F060FD052001F03BFB02213D48AC
:101A700001F059FD04213B4801F053FD082139488C
:101A800001F051FD052001F02CFB0221354801F049
:101A900048FD0421334801F044FD0821314801F09C
:101AA00042FD052001F01DFB02212E4801F03BFD07
:101AB00004212C4801F037FD08212A4801F033FDAC
:101AC000052001F00EFB0221264801F02AFD042129
:101AD000244801F028FD0821224801F024FD0520BA
:101AE00001F0FFFA02211F4801F01DFD04211D48ED
:101AF00001F017FD08211B4801F015FD052001F03C
:101B0000F0FA0221174801F00CFD0421154801F0FC
:101B100008FD0821134801F006FD052001F0E1FA57
:101B20000221104801F0FFFC04210E4801F0FBFCEB
:101B300008210C4801F0F7FC052001F0D2FA02213F
:101B4000084801F0EEFC0421064801F0ECFC0821F5
:101B5000044801F0E8FC052001F0C3FAFFF704FE99
:101B600010BD00000010014010B5FFF7FDFD822000
:101B700001F0B7FA0221FE4801F0D5FC0421FC482F
:101B800001F0D1FC0821FA4801F0CDFC052001F05C
:101B9000A8FA0221F64801F0C4FC0421F44801F03F
:101BA000C2FC0821F24801F0BCFC052001F099FAC2
:101BB0000221EF4801F0B7FC0421ED4801F0B3FC2D
:101BC0000821EB4801F0AFFC052001F08AFA022160
:101BD000E74801F0A6FC0421E54801F0A4FC082137
:101BE000E34801F0A0FC052001F07BFA0221E04867
:101BF00001F099FC0421DE4801F095FC0821DC4845
:101C000001F091FC052001F06CFA0221D84801F0A6
:101C100088FC0421D64801F086FC0821D44801F054
:101C200080FC052001F05DFA0221D14801F07BFC27
:101C30000421CF4801F077FC0821CD4801F073FC66
:101C4000052001F04EFA0221C94801F06AFC042186
:101C5000C74801F068FC0821C54801F062FC052076
:101C600001F03FFA0221C24801F05DFC0421C048A6
:101C700001F059FC0821BE4801F055FC052001F097
:101C800030FA0221BA4801F04CFC0421B84801F0B6
:101C90004AFC0821B64801F046FC052001F021FA73
:101CA0000221B34801F03FFC0421B14801F03BFCA4
:101CB0000821AF4801F037FC052001F012FA02219B
:101CC000AB4801F02EFC0421A94801F02CFC0821AE
:101CD000A74801F028FC052001F003FA0221A448DE
:101CE00001F021FC0421A24801F01DFC0821A048BC
:101CF00001F019FC052001F0F4F902219C4801F0E3
:101D000010FC04219A4801F00EFC0821984801F0CB
:101D10000AFC052001F0E5F90221954801F003FCD9
:101D20000421934801F0FFFB0821914801F0FBFBDF
:101D3000052001F0D6F902218D4801F0F2FB0421C3
:101D40008B4801F0F0FB0821894801F0ECFB0520ED
:101D500001F0C7F9FFF708FD10BD10B5FFF704FD4E
:101D60000221834801F0DFFB0421814801F0DBFB05
:101D700008217F4801F0D7FB052001F0B2F90221CC
:101D80007B4801F0CEFB0421794801F0CCFB08210F
:101D9000774801F0C8FB052001F0A3F9022174483F
:101DA00001F0C1FB0421724801F0BDFB082170481D
:101DB00001F0B9FB052001F094F902216C4801F013
:101DC000B0FB04216A4801F0AEFB0821684801F02D
:101DD000AAFB052001F085F90221654801F0A3FB6B
:101DE0000421634801F09FFB0821614801F09BFB3F
:101DF000052001F076F902215D4801F092FB0421F3
:101E00005B4801F090FB0821594801F08CFB05204C
:101E100001F067F90221564801F085FB042154487E
:101E200001F07FFB0821524801F07DFB052001F005
:101E300058F902214E4801F074FB04214C4801F08E
:101E400070FB08214A4801F06EFB052001F049F9BA
:101E50000221474801F067FB0421454801F063FB7C
:101E60000821434801F05FFB052001F03AF9022107
:101E70003F4801F056FB04213D4801F054FB082186
:101E80003B4801F050FB052001F02BF902213848B6
:101E900001F049FB0421364801F043FB0821344896
:101EA00001F041FB052001F01CF90221304801F04E
:101EB00038FB04212E4801F034FB08212C4801F0A6
:101EC00032FB052001F00DF90221294801F02BFB1E
:101ED0000421274801F025FB0821254801F023FBB8
:101EE000052001F0FEF80221214801F01AFB04212F
:101EF0001F4801F016FB08211D4801F014FB0520C6
:101F000001F0EFF802211A4801F00DFB04211848F6
:101F100001F009FB0821164801F005FB052001F03E
:101F2000E0F80221124801F0FCFA0421104801F007
:101F3000FAFA08210E4801F0F6FA052001F0D1F86E
:101F4000FFF712FC10BD10B5FFF70EFC0221084888
:101F500001F0E9FA0421064801F0E5FA08210448F5
:101F600001F0E1FA052001F0BCF80221004801E08F
:101F70000010014001F0D5FA0421FE4801F0D3FA27
:101F80000821FC4801F0CFFA052001F0AAF802214F
:101F9000F84801F0C8FA0421F64801F0C2FA082115
:101FA000F44801F0C0FA052001F09BF80221F14845
:101FB00001F0B7FA0421EF4801F0B3FA0821ED4827
:101FC00001F0B1FA052001F08CF80221E94801F096
:101FD000AAFA0421E74801F0A6FA0821E54801F031
:101FE000A2FA052001F07DF80221E24801F099FAF9
:101FF0000421E04801F097FA0821DE4801F093FA45
:10200000052001F06EF80221DA4801F08CFA042173
:10201000D84801F086FA0821D64801F084FA052054
:1020200001F05FF80221D34801F07BFA0421D14886
:1020300001F077FA0821CF4801F075FA052001F088
:1020400050F80221CB4801F06EFA0421C94801F092
:102050006AFA0821C74801F066FA052001F041F844
:102060000221C44801F05DFA0421C24801F05BFA84
:102070000821C04801F057FA052001F032F802218A
:10208000BC4801F050FA0421BA4801F04CFA08218A
:10209000B84801F048FA052001F023F80221B548BC
:1020A00001F03FFA0421B34801F03DFA0821B1489C
:1020B00001F039FA052001F014F80221AD4801F0D1
:1020C00032FA0421AB4801F02EFA0821A94801F0A8
:1020D0002AFA052001F005F80221A64801F021FAAC
:1020E0000421A44801F01FFA0821A24801F01BFABC
:1020F000052000F0F6FF02219E4801F014FA0421A9
:102100009C4801F010FA08219A4801F00CFA0520C9
:1021100000F0E7FF0221974801F003FA04219548F7
:1021200001F001FA0821934801F0FDF9052000F0C3
:10213000D8FFFFF719FB10BD10B5FFF715FB822084
:1021400000F0CFFF02218B4801F0EDF9042189480E
:1021500001F0E9F90821874801F0E5F9052000F0D0
:10216000C0FF0221834801F0DCF90421814801F01D
:10217000DAF908217F4801F0D4F9052000F0B1FF19
:1021800002217C4801F0CFF904217A4801F0CBF913
:102190000821784801F0C5F9052000F0A2FF0221CE
:1021A000744801F0BEF90421724801F0BCF908211D
:1021B000704801F0B8F9052000F093FF02216D4846
:1021C00001F0B1F904216B4801F0ADF9082169482B
:1021D00001F0A9F9052000F084FF0221654801F013
:1021E000A0F90421634801F09EF90821614801F03B
:1021F00098F9052000F075FF02215E4801F093F97F
:1022000004215C4801F08FF908215A4801F089F94E
:10221000052000F066FF0221564801F082F90421F2
:10222000544801F080F90821524801F07CF905205A
:1022300000F057FF02214F4801F075F904214D4885
:1022400001F071F908214B4801F06DF9052000F00B
:1022500048FF0221474801F064F90421454801F094
:1022600062F90821434801F05EF9052000F039FFCA
:102270000221404801F057F904213E4801F053F98A
:1022800008213C4801F04FF9052000F02AFF022107
:10229000384801F046F90421364801F044F9082194
:1022A000344801F040F9052000F01BFF02213148BD
:1022B00001F039F904212F4801F035F908212D48A2
:1022C00001F031F9052000F00CFF0221294801F04E
:1022D00028F90421274801F026F90821254801F0B2
:1022E00022F9052000F0FDFE0221224801F01BF931
:1022F0000421204801F017F908211E4801F013F9C4
:10230000052000F0EEFE02211A4801F00AF904212E
:10231000184801F008F90821164801F004F90520D1
:1023200000F0DFFEFFF720FA822000F0DAFE10BD99
:1023300010B5FFF719FA02210E4801F0F4F8042154
:102340000C4801F0F0F808210A4801F0ECF80520EB
:1023500000F0C7FE0221074801F0E3F80421054818
:1023600001F0E1F80821034801F0DDF8052000F054
:10237000B8FE01E0001001400221FE4801F0D3F850
:102380000421FC4801F0CFF80821FA4801F0CBF80D
:10239000052000F0A6FE0221F64801F0C2F8042153
:1023A000F44801F0C0F80821F24801F0BCF805201B
:1023B00000F097FE0221EF4801F0B5F80421ED4846
:1023C00001F0B1F80821EB4801F0ADF8052000F06C
:1023D00088FE0221E74801F0A4F80421E54801F055
:1023E000A2F80821E34801F09EF8052000F079FEEC
:1023F0000221E04801F097F80421DE4801F093F84B
:102400000821DC4801F08FF8052000F06AFE022167
:10241000D84801F086F80421D64801F084F8082154
:10242000D44801F080F8052000F05BFE0221D1487D
:1024300001F079F80421CF4801F075F80821CD4862
:1024400001F071F8052000F04CFE0221C94801F0AE
:1024500068F80421C74801F066F80821C54801F072
:1024600062F8052000F03DFE0221C24801F05BF851
:102470000421C04801F057F80821BE4801F053F884
:10248000052000F02EFE0221BA4801F04AF804218E
:10249000B84801F048F80821B64801F044F8052092
:1024A00000F01FFE0221B34801F03DF80421B148BD
:1024B00001F039F80821AF4801F035F8052000F0A7
:1024C00010FE0221AB4801F02CF80421A94801F0CC
:1024D0002AF80821A74801F026F8052000F001FE9F
:1024E0000221A44801F01FF80421A24801F01BF8C2
:1024F0000821A04801F017F8052000F0F2FD0221A4
:102500009C4801F00EF804219A4801F00CF80821CB
:10251000984801F008F8052000F0E3FDFFF724F9E2
:1025200010BD10B5FFF720F90221924800F0FBFF23
:102530000421904800F0F7FF08218E4800F0F3FFD7
:10254000052000F0CEFD02218A4800F0EAFF0421B8
:10255000884800F0E8FF0821864800F0E4FF0520E5
:1025600000F0BFFD0221834800F0DDFF0421814817
:1025700000F0D9FF08217F4800F0D5FF052000F0CA
:10258000B0FD02217B4800F0CCFF0421794800F027
:10259000CAFF0821774800F0C6FF052000F0A1FD22
:1025A0000221744800F0BFFF0421724800F0B9FF17
:1025B0000821704800F0B7FF052000F092FD0221CD
:1025C0006C4800F0AEFF04216A4800F0AAFF082121
:1025D000684800F0A8FF052000F083FD022165484F
:1025E00000F0A1FF0421634800F09BFF082161482F
:1025F00000F099FF052000F074FD02215D4800F015
:1026000090FF04215B4800F08CFF0821594800F03E
:102610008AFF052000F065FD0221564800F083FF87
:102620000421544800F07FFF0821524800F07BFF4E
:10263000052000F056FD02214E4800F072FF0421F3
:102640004C4800F070FF08214A4800F06CFF05205C
:1026500000F047FD0221474800F065FF042145488E
:1026600000F061FF0821434800F05DFF052000F005
:1026700038FD02213F4800F054FF04213D4800F09E
:1026800052FF08213B4800F04EFF052000F029FDD5
:102690000221384800F047FF0421364800F041FF8E
:1026A0000821344800F03FFF052000F01AFD022108
:1026B000304800F036FF04212E4800F032FF082198
:1026C0002C4800F030FF052000F00BFD02212948C6
:1026D00000F029FF0421274800F025FF08212548A4
:1026E00000F021FF052000F0FCFC0221214800F051
:1026F00018FF04211F4800F016FF08211D4800F0B4
:1027000012FF052000F0EDFCFFF72EF810BD10B50C
:10271000FFF72AF80221174800F005FF04211548A9
:1027200000F001FF0821134800F0FDFE052000F035
:10273000D8FC02210F4800F0F4FE04210D4800F0FF
:10274000F2FE08210B4800F0ECFE052000F0C9FC69
:102750000221084800F0E7FE0421064800F0E3FEED
:102760000821044800F0DFFE052000F0BAFC022139
:10277000004801E00010014000F0D3FE0421FE48B3
:1027800000F0D1FE0821FC4800F0CDFE052000F04D
:10279000A8FC0221F84800F0C6FE0421F64800F02B
:1027A000C2FE0821F44800F0BEFE052000F099FCAE
:1027B0000221F14800F0B5FE0421EF4800F0B3FE1D
:1027C0000821ED4800F0AFFE052000F08AFC022150
:1027D000E94800F0A8FE0421E74800F0A4FE082123
:1027E000E54800F0A0FE052000F07BFC0221E24855
:1027F00000F097FE0421E04800F095FE0821DE4835
:1028000000F08FFE052000F06CFC0221DA4800F099
:102810008AFE0421D84800F086FE0821D64800F040
:1028200082FE052000F05DFC0221D34800F079FE15
:102830000421D14800F077FE0821CF4800F073FE54
:10284000052000F04EFC0221CB4800F06CFE042174
:10285000C94800F068FE0821C74800F064FE052062
:1028600000F03FFC0221C44800F05BFE0421C24896
:1028700000F059FE0821C04800F055FE052000F088
:1028800030FC0221BC4800F04EFE0421BA4800F0A2
:102890004AFE0821B84800F046FE052000F021FC61
:1028A0000221B54800F03DFE0421B34800F03BFE94
:1028B0000821B14800F037FE052000F012FC02218B
:1028C000AD4800F030FE0421AB4800F02CFE08219A
:1028D000A94800F028FE052000F003FC0221A648CC
:1028E00000F01FFE0421A44800F01DFE0821A248AC
:1028F00000F019FE052000F0F4FBFEF735FF10BDD7
:1029000010B5FEF731FF02219B4800F00CFE0421B8
:10291000994800F008FE0821974800F004FE0520C1
:1029200000F0DFFB0221944800F0FBFD04219248F7
:1029300000F0F9FD0821904800F0F3FD052000F0BB
:10294000D0FB02218C4800F0EEFD04218A4800F003
:10295000EAFD0821884800F0E6FD052000F0C1FBF3
:102960000221854800F0DDFD0421834800F0DBFDF5
:102970000821814800F0D7FD052000F0B2FB0221BC
:102980007D4800F0D0FD04217B4800F0CCFD0821FB
:10299000794800F0C8FD052000F0A3FB022176482D
:1029A00000F0BFFD0421744800F0BDFD082172480D
:1029B00000F0B9FD052000F094FB02216E4800F004
:1029C000B2FD04216C4800F0AEFD08216A4800F019
:1029D000AAFD052000F085FB0221674800F0A1FD5B
:1029E0000421654800F09FFD0821634800F09BFD2D
:1029F000052000F076FB02215F4800F094FD0421E1
:102A00005D4800F090FD08215B4800F08CFD05203A
:102A100000F067FB0221584800F083FD042156486E
:102A200000F081FD0821544800F07DFD052000F0F4
:102A300058FB0221504800F076FD04214E4800F07A
:102A400072FD08214C4800F06EFD052000F049FBA6
:102A50000221494800F065FD0421474800F063FD6C
:102A60000821454800F05FFD052000F03AFB0221F7
:102A7000414800F058FD04213F4800F054FD082172
:102A80003D4800F050FD052000F02BFB02213A48A4
:102A900000F047FD0421384800F045FD0821364884
:102AA00000F03FFD052000F01CFB0221324800F041
:102AB0003AFD0421304800F036FD08212E4800F090
:102AC00032FD052000F00DFB02212B4800F029FD0E
:102AD0000421294800F027FD0821274800F023FDA4
:102AE000052000F0FEFAFEF73FFE10BD10B5FEF720
:102AF0003BFE0221204800F016FD04211E4800F094
:102B000012FD08211C4800F00EFD052000F0E9FA36
:102B10000221194800F005FD0421174800F003FDCB
:102B20000821154800F0FFFC052000F0DAFA022128
:102B3000114800F0F8FC04210F4800F0F4FC0821D3
:102B40000D4800F0F0FC052000F0CBFA02210A4805
:102B500000F0E7FC0421084800F0E5FC08210648E5
:102B600000F0E1FC052000F0BCFA0221024800F070
:102B7000DAFC0421004801E00010014000F0D3FC21
:102B80000821FE4800F0CFFC052000F0AAFA02213F
:102B9000FA4800F0C6FC0421F84800F0C2FC082105
:102BA000F64800F0C0FC052000F09BFA0221F34833
:102BB00000F0B9FC0421F14800F0B3FC0821EF4813
:102BC00000F0B1FC052000F08CFA0221EB4800F087
:102BD000A8FC0421E94800F0A4FC0821E74800F023
:102BE000A2FC052000F07DFA0221E44800F09BFCE5
:102BF0000421E24800F097FC0821E04800F093FC33
:102C0000052000F06EFA0221DC4800F08AFC042165
:102C1000DA4800F088FC0821D84800F084FC052040
:102C200000F05FFA0221D54800F07DFC0421D34872
:102C300000F079FC0821D14800F075FC052000F077
:102C400050FA0221CD4800F06CFC0421CB4800F082
:102C50006AFC0821C94800F066FC052000F041FA32
:102C60000221C64800F05FFC0421C44800F05BFC70
:102C70000821C24800F057FC052000F032FA02217A
:102C8000BE4800F04EFC0421BC4800F04CFC08217A
:102C9000BA4800F048FC052000F023FA0221B748AA
:102CA00000F041FC0421B54800F03DFC0821B34888
:102CB00000F039FC052000F014FA0221AF4800F0C2
:102CC00030FC0421AD4800F02EFC0821AB4800F098
:102CD0002AFC052000F005FAFEF746FD10BD10B5F0
:102CE000FEF742FD0221A54800F01DFC0421A34887
:102CF00000F019FC0821A14800F015FC052000F0A7
:102D0000F0F902219D4800F00CFC04219B4800F0E2
:102D10000AFC0821994800F004FC052000F0E1F9C4
:102D20000221964800F0FFFB0421944800F0FBFBD1
:102D30000821924800F0F7FB052000F0D2F90221AB
:102D40008E4800F0EEFB04218C4800F0ECFB0821DB
:102D50008A4800F0E8FB052000F0C3F9022187480B
:102D600000F0E1FB0421854800F0DDFB08218348E9
:102D700000F0D9FB052000F0B4F902217F4800F0F3
:102D8000D0FB04217D4800F0CEFB08217B4800F0F9
:102D9000CAFB052000F0A5F90221784800F0C3FB2A
:102DA0000421764800F0BFFB0821744800F0BBFB0B
:102DB000052000F096F90221704800F0B2FB0421D2
:102DC0006E4800F0B0FB08216C4800F0ACFB052019
:102DD00000F087F90221694800F0A5FB042167484B
:102DE00000F0A1FB0821654800F09DFB052000F0E4
:102DF00078F90221614800F094FB04215F4800F05B
:102E000092FB08215D4800F08EFB052000F069F977
:102E100002215A4800F087FB0421584800F083FB48
:102E20000821564800F07FFB052000F05AF90221E6
:102E3000524800F076FB0421504800F074FB082152
:102E40004E4800F070FB052000F04BF902214B4882
:102E500000F069FB0421494800F065FB0821474860
:102E600000F061FB052000F03CF90221434800F02E
:102E700058FB0421414800F056FB08213F4800F070
:102E800052FB052000F02DF902213C4800F04BFBDD
:102E900004213A4800F047FB0821384800F043FB82
:102EA000052000F01EF90221344800F03AFB04210D
:102EB000324800F038FB0821304800F034FB052090
:102EC00000F00FF9FEF750FC10BD10B5FEF75AFCEC
:102ED00040F2762000F005F9FEF74DFD4FF4B47096
:102EE00000F0FFF8FEF740FE4FF4A57000F0F9F88F
:102EF000FEF733FF4FF4A57000F0F3F8FEF72DFF57
:102F00004FF4A57000F0EDF8FFF71DF8252000F054
:102F10000BF9FEF737FC40F2762000F0E2F8FEF7FE
:102F20002AFD4FF4B47000F0DCF8FEF71DFE4FF4FC
:102F3000A57000F0D6F8FFF7FBF94FF4A57000F08C
:102F4000D0F8FFF7EEFA0B2000F0EEF8FEF71AFCCF
:102F500040F28A2000F0C5F8FEF70DFD4FF4B47082
:102F600000F0BFF8FFF7D3FB4FF4AF7000F0B9F8F3
:102F7000FFF7C6FC4FF4AF7002E000000010014004
:102F800000F0AFF8FFF7B2FD4FF4B47000F0A9F80D
:102F9000FFF7CEF90A2000F0C7F8FEF7F3FB40F286
:102FA000762000F09EF8FEF7E6FC4FF4B47000F0D7
:102FB00098F8FEF7D9FD4FF4A57000F092F8FFF7EE
:102FC0008EFE4FF4B47000F08CF8FFF78FFD4FF4D5
:102FD000A57000F086F8FFF7ABF910BD0EB5012122
:102FE000084600F0A9FC0D21002000F003FB4FF47F
:102FF0000050019000208DF808000C208DF8090089
:1030000001208DF80A0001A800F07EFF0F210020AA
:1030100000F0F0FA4FF40040019001A800F074FFB6
:103020000021084600F0E6FA0120019008208DF802
:10303000090001A800F068FF28208DF80000022098
:103040008DF8010003208DF8020001208DF80300A7
:10305000684600F0E2FE06208DF8000002208DF8A0
:1030600001008DF8020001208DF80300684600F091
:10307000D4FE0EBD08B50121042000F05DFC4FF424
:103080002040ADF8000048208DF80300694607484D
:1030900000F09CF90120ADF8000028208DF8030015
:1030A0006946024800F092F908BD0000000801409E
:1030B00010B56FF0040000F0FBFE2D4800682D49AC
:1030C000B0FBF1F02C4908700846007800EB400195
:1030D000C1EBC0104FF6FF7101EAC000274908801C
:1030E00010BD0146244A12784A434FF0E0235A614A
:1030F00000229A611A46126942F001021A6100BF69
:103100004FF0E022106910F0010F02D010F4803F60
:10311000F6D04FF0E022126922F001024FF0E023D6
:103120001A6100229A6170470146144A12884A4384
:103130004FF0E0235A6100229A611A46126942F068
:1031400001021A6100BF4FF0E022106910F0010F78
:1031500002D010F4803FF6D04FF0E022126922F046
:1031600001024FF0E0231A6100229A6170470000CB
:103170000400002000127A00180000201A0000202D
:1031800010B54FF4A06000F043FE10BD014600BF33
:10319000704700BF494A128812F0400FFAD0C2B2FD
:1031A000464B1B1D1A80704710B586B0044601219E
:1031B00044F2040000F0C0FB4FF40070ADF81400BE
:1031C00003208DF8160018208DF8170005A93C483B
:1031D00000F0FCF84FF48060ADF8140004208DF886
:1031E000170005A9364800F0F1F825208DF80000F9
:1031F00003208DF801008DF8020001208DF80300F6
:10320000684600F00AFE01940020ADF80800ADF811
:103210000A00ADF80C00ADF810000C20ADF80E005F
:1032200001A9264800F033FC012240F22551234831
:1032300000F0C5FC0121214800F0B5FC06B010BD2E
:1032400010B540F225511D4800F09EFD10B31B48FB
:1032500000F01AFDC4B21B48008810F4004F2BD1B7
:103260001848008810F4804F0CD00A2C03D000209E
:103270001449088020E01348008840F400401149B8
:10328000088019E00D2C06D10E48008840F48040DB
:103290000C49088010E00B480088C0F30D000A4973
:1032A0000C5408480088401C0649088008460088DD
:1032B000C72801DD0020088010BD00000038014053
:1032C000000801401C000020380000200948804709
:1032D00009480047FEE7FEE7FEE7FEE7FEE7FEE7F8
:1032E000FEE7FEE7FEE7FEE704480549054A064B10
:1032F00070470000710300083101000860010020E0
:1033000060070020600300206003002010B5044621
:10331000CA48844208D10121042000F027FB002183
:10332000042000F023FB46E0C548844208D1012177
:10333000082000F01BFB0021082000F017FB3AE0FA
:10334000C048844208D10121102000F00FFB002169
:10335000102000F00BFB2EE0BB48844208D1012175
:10336000202000F003FB0021202000F0FFFA22E0E3
:10337000B648844208D10121402000F0F7FA00212C
:10338000402000F0F3FA16E0B148844208D1012150
:10339000802000F0EBFA0021802000F0E7FA0AE03C
:1033A000AC48844207D10121801500F0DFFA0021EA
:1033B000A01500F0DBFA10BD10B50121084600F0A1
:1033C000D5FA0021012000F0D1FA10BD2DE9F0411D
:1033D000024600250026002000230024002791F843
:1033E00003C00CF00F0591F803C01CF0100F03D0C0
:1033F00091F802C04CEA050591F800C0BCF1000F3D
:1034000031D0146800202BE04FF0010C0CFA00F3CF
:10341000B1F800C00CEA03069E4220D183004FF0B1
:103420000F0C0CFA03F7BC4305FA03FC4CEA040446
:1034300091F803C0BCF1280F06D14FF0010C0CFA33
:1034400000FCC2F814C00AE091F803C0BCF1480FB8
:1034500005D14FF0010C0CFA00FCC2F810C0401C62
:103460000828D1D31460B1F800C0BCF1FF0F34DDDF
:10347000546800202EE000F1080C4FF0010808FA13
:103480000CF3B1F800C00CEA03069E4221D1830080
:103490004FF00F0C0CFA03F7BC4305FA03FC4CEA9F
:1034A000040491F803C0BCF1280F05D100F1080C09
:1034B00008FA0CF8C2F8148091F803C0BCF1480F68
:1034C00007D100F1080C4FF0010808FA0CF8C2F817
:1034D0001080401C0828CED35460BDE8F0814FF620
:1034E000FF710180022181700421C1707047024682
:1034F000002093680B4201D0012000E000207047BB
:103500000146886880B2704702460020D3680B42AB
:1035100001D0012000E0002070470146C86880B259
:10352000704701617047416170470AB1016100E075
:1035300041617047C16070474FF480320A43826135
:103540008161826182698269704702460020424B34
:1035500018684FF68073184040EA021008433E4B4B
:10356000186070473D49C8617047F0B50A460023AE
:1035700000240021002500F00046B6F1004F02D1E2
:10358000354EF16901E0344E7168C0F3034583B2F2
:1035900000F44016B6F5401F08D121F070612E4EA0
:1035A000766826F070662C4F7E6012E000F480167C
:1035B000B6F5801F06D1032606FA05F4A14341F0B3
:1035C000706106E0460D360103FA06F6B14341F09C
:1035D000706122B1460D360103FA06F6314300F060
:1035E0000046B6F1004F02D11B4EF16101E01A4EC8
:1035F0007160F0BD30B500228B071C0F0F2303FA5A
:1036000004F2154B08338C1053F824309343124CBA
:1036100008348D1044F8253023468C1053F824309C
:103620008C07240F00FA04F423430B4C08348D104C
:1036300044F8253030BD0A49086070470008014051
:10364000000C01400010014000140140001801402E
:10365000001C014000200140000001400000204209
:10366000DC002042DD48006840F00100DB490860D2
:1036700008464068DA490840D8494860084600686A
:10368000D8490840D54908600846006820F48020E1
:1036900008600846406820F4FE0048604FF41F00B0
:1036A00088607047CD49096821F48031CB4A1160A8
:1036B0001146096821F480211160B0F5803F03D0E4
:1036C000B0F5802F0ED106E0C449096841F480317D
:1036D000C24A116007E0C149096841F4A021BF4A0C
:1036E000116000E000BF00BF704710B50146002226
:1036F000002300204A11012A02D1B84C236806E0B9
:10370000022A02D1B54C236A01E0B44C636A01F08D
:103710001F02012494401C4201D0012000E000203F
:1037200010BD38B5002000900024002500BF3120D6
:10373000FFF7DBFF05460098401C00900098B0F5AD
:10374000A06F01D0002DF2D03120FFF7CEFF08B1DD
:10375000012400E00024204638BD014600209F4A95
:10376000106820F0F80040EAC100106070479E49E0
:103770000860704702460020984B586820F47C107F
:1037800042EA01031843954B586070479649086612
:10379000704701460020914A506820F0030008431A
:1037A000506070478D48406800F00C00704701463B
:1037B00000208A4A506820F0F000084350607047AB
:1037C00001460020854A506820F4E06008435060BC
:1037D000704701460020814A506820F4605040EA5A
:1037E000C1005060704729B17C4A527A02437B4B3A
:1037F0005A7204E0794A527A8243784B5A7270477F
:103800007A490860704701460020744A506820F4E5
:1038100040400843506070470021754A11706F4A5C
:1038200082F82010012802D0042808D103E00121E9
:103830006F4A117004E005216D4A117000E000BF6D
:1038400000BF70476B49086070476449096A0143CB
:10385000624A11627047674944390860704730B561
:1038600000210022002400235C4D6D6805F00C014E
:1038700021B1042905D0082923D105E05E4D05605A
:1038800022E05D4D05601FE0544D6D6805F4701237
:10389000524D6D6805F48034022505EB92421CB947
:1038A000564D554305600BE04C4D6D6815F4003FD7
:1038B00003D0524D5543056002E04F4D554305601E
:1038C00002E04D4D056000BF00BF444D6D6805F03E
:1038D000F00109094A4D6B5C0568DD4045603F4DCC
:1038E0006D6805F4E061090A454D6B5C4568DD4093
:1038F00085603A4D6D6805F46051C90A404D6B5CB6
:103900004568DD40C560354D6D6805F44041890B63
:103910003C4D6B5CC568B5FBF3F5056130BD29B165
:103920002E4A526902432D4B5A6104E02B4A5269D8
:1039300082432A4B5A61704729B1284A926902434F
:10394000264B9A6104E0254A92698243234B9A618F
:10395000704729B1214AD2690243204BDA6104E061
:103960001E4AD26982431D4BDA61704729B11B4A56
:10397000D2680243194BDA6004E0184AD2688243E5
:10398000164BDA60704729B1144A12690243134B8F
:103990001A6104E0114A12698243104B1A617047A0
:1039A00014494039086070470F49C86470470B4993
:1039B000C87170470948406A40F080700749486202
:1039C000704701460020054A92680A4201D0012052
:1039D00000E00020704701498872704700100240E3
:1039E0000000FFF8FFFFF6FE00004242D80042420E
:1039F000201002408004424200127A0000093D007B
:103A0000240000203400002010B50446FB48844206
:103A100009D101218803FFF7A9FF00214FF480405D
:103A2000FFF7A4FF32E0F648844209D1012148049F
:103A3000FFF7A9FF00214FF40030FFF7A4FF25E0B6
:103A4000F048844209D101218804FFF79CFF00213E
:103A50004FF48020FFF797FF18E0EB48844209D12C
:103A60000121C804FFF78FFF00214FF40020FFF76A
:103A70008AFF0BE0E548844208D101210805FFF7E1
:103A800082FF00214FF48010FFF77DFF10BD2DE96C
:103A9000F04786B005460E460024A24600BFA14668
:103AA0000027B08900B100BF2F462C8A4CF6FF706A
:103AB0000440F08804432C82AC894EF6F310044095
:103AC000B08831890843718908430443AC81AC8ACA
:103AD0004FF6FF400440B0890443AC8201A8FFF7D1
:103AE000BEFEC648874202D1DDF810A001E0DDF835
:103AF0000CA0A88910F4004F08D00AEBCA0000EB14
:103B00000A1031684900B0FBF1F807E00AEBCA007F
:103B100000EB0A1031688900B0FBF1F86420B8FBB3
:103B2000F0F004012009642101FB1089A88910F438
:103B3000004F08D0322000EBC900B0FBF1F000F0DC
:103B40000700044308E0322000EB09106421B0FBB9
:103B5000F1F000F00F0004432C8106B0BDE8F087BF
:103B60004FF41651016000218180C18001810C2138
:103B7000418100218181704710B502460020108AE2
:103B80004FF2FF0318400B884C8823438C88234353
:103B9000CC8823431843108210BD0021018041804E
:103BA0008180C180704721B1828942F400528281B4
:103BB00004E082894DF6FF731A4082817047F0B5A8
:103BC00003460024002600250020A1F510676A3F67
:103BD00000D100BF1846C1F3421401F01F060127AF
:103BE00007FA06F5012C01D10C3004E0022C01D1BA
:103BF000103000E014301AB107682F43076002E06C
:103C00000768AF430760F0BD1AB1838A0B43838214
:103C100002E0838A8B4383827047028A4FF6F073F7
:103C20001A400282028A0A430282704782894FF256
:103C3000FF731A40828182890A438281704721B1D1
:103C4000828942F00202828104E082894FF6FD738C
:103C50001A4082817047028A4FF6DF731A4002824F
:103C6000028A0A430282704721B1028A42F48042EA
:103C7000028204E0028A4BF6FF731A400282704708
:103C8000C1F308028280704701468888C0F30800AB
:103C90007047818941F0010181817047028BD2B266
:103CA0000283028B42EA012202837047028B02F4F4
:103CB0007F420283028B0A430283704721B1828ACA
:103CC00042F02002828204E0828A4FF6DF731A40BB
:103CD0008282704721B1828A42F01002828204E01F
:103CE000828A4FF6EF731A408282704721B1828A2E
:103CF00042F00802828204E0828A4FF6F7731A408B
:103D00008282704721B1828942F40042828103E0BD
:103D10008289C2F30E028281704721B1828A42F405
:103D20000062828204E0828A4FF2FF731A4082822C
:103D30007047828A4FF6FB731A408282828A0A4356
:103D40008282704721B1828A42F00202828204E0BC
:103D5000828A4FF6FD731A40828270470246002025
:103D6000B1F5007F00D100BF13880B4201D00120C4
:103D700000E00020704701F40072B2F5007F00D12E
:103D800000BFCA430280704770B50246002400237A
:103D900000250020A1F510666A3E00D100BFC1F3E6
:103DA000421501F01F03012606FA03F3012D02D18B
:103DB0009689334006E0022D02D1168A334001E095
:103DC000968A33400C12012606FA04F41688344011
:103DD00013B10CB1012000E0002070BD10B500222D
:103DE0000023A1F510646A3C00D100BF0A1201242F
:103DF0009440A3B2DC43048010BD000000380140B1
:103E00000044004000480040004C0040005000408A
:103E100031490143314A1160704770B500210023D8
:103E20000F22C4780CB32D4C246804F4E064C4F56C
:103E3000E064210AC1F10403CA40447804FA03F1A2
:103E40008478144021430901254C0678A155047853
:103E500004F01F050124AC4005786D114FF0E026F9
:103E600006EB8505C5F8004109E0047804F01F055C
:103E70000124AC401B4D0678761145F8264070BDF4
:103E8000194A0A400243154B1B1F1A60704739B18B
:103E9000124A121D12680243104B1B1D1A6006E0E5
:103EA0000E4A121D126882430C4B1B1D1A6070478C
:103EB000042808D14FF0E021096941F004014FF0D6
:103EC000E022116107E04FF0E021096921F00401CF
:103ED0004FF0E022116170470000FA050CED00E0A0
:103EE00000E400E080E100E080FFFF1F0020474980
:103EF0000860091D0860091D0860091D0860444824
:103F00004249143108607047002140498279002AF3
:103F10003AD00A46126803689A430B461A600A1D93
:103F2000126803689A430B1D1A60027911440A68EB
:103F300003681A430A60354A0832126803689A43D4
:103F4000324B08331A601A1D126803689A432F4BCC
:103F50000C331A604279102A0ED11A1F12680368B6
:103F60001A432A4B08331A601A1D126803681A4351
:103F7000264B0C331A600DE02449427911440A683B
:103F800003681A430A6005E0027911440A6803686D
:103F90009A430A6070470021016001710C21417150
:103FA0000021817170470021817170470121817169
:103FB00070471649103109680143144A10321160E4
:103FC000704701460020114A143212680A4201D09B
:103FD000012000E0002070470C4914310860704750
:103FE000014600200022094B1B6803EA0102074B2F
:103FF00014331B680B4202D00AB1012000E00020FC
:104000007047024914310860704700000004014005
:10401000FFFF0F0070477047704770477047754645
:1040200000F028F8AE4605006946534620F0070028
:10403000854618B020B5FFF757F9BDE820404FF08E
:1040400000064FF000074FF000084FF0000B21F082
:104050000701AC46ACE8C009ACE8C009ACE8C0094F
:10406000ACE8C0098D4670470446AFF30080204697
:10407000FCF7A5F800487047000100209C400008AC
:1040800000000020380000006C010008D440000847
:104090003800002028070000880100080000000008
:1040A00000A24A0400000000000000000102030416
:1040B00006070809000000000000000000000000E2
:1040C00000000000010203040102030406070809BE
:0440D00002040608D8
:0400000508000131BD
:00000001FF
